S01300004C4344313630325F4932432E7372656358
S113000010C01FC01EC01DC01CC01BC01AC019C018
S113001018C017C016C015C014C013C012C011C038
S113002010C011241FBECFE5D2E0DEBFCDBF20E05B
S1130030A0E6B0E001C01D92A136B207E1F755D0A9
S113004058C0DECF80916000816080936000D09AB8
S1130050D89889E18A95F1F70000D19AD99885E179
S11300608A95F1F700000895809160008E7F809357
S11300706000D198D99A85E18A95F1F70000D0986B
S1130080D89A89E18A95F1F7000008959C0198E0D7
S113009027FF04C0D99AD89AD99803C0D99AD89876
S11300A0D998220F331F915099F708958EE490E068
S11300B0EDDF0895D098D99AC89904C0D998D09AF8
S11300C081E00895D998D09A80E00895CF93DF9382
S11300D0EC01B8DFEBDFEEDF882319F0CE01D6DFC9
S11300E001C0C2DFDF91CF91089582E090E0EEDF9E
S10900F0FCCFF894FFCFE1
S9030000FC
